:100000000C945E000C9486000C9486000C94860080
:100010000C9486000C9486000C9486000C94860048
:100020000C9486000C9486000C9486000C94860038
:100030000C9486000C9486000C9486000C94860028
:100040000C94FE020C9486000C94CC020C94A60234
:100050000C9486000C9486000C9486000C94860008
:100060000C9486000C948600000000080002010039
:100070000003040700000000000000000000000072
:10008000250028002B0000000000240027002A0083
:10009000040404040404040402020202020203032E
:1000A0000303030301020408102040800102040836
:1000B00010200102040810204803AD0411241FBEC3
:1000C000CFEFD8E0DEBFCDBF21E0ACE1B1E001C0B1
:1000D0001D92AF3DB207E1F711E0A0E0B1E0E2EF21
:1000E000FDE002C005900D92AC31B107D9F710E0E8
:1000F000CDE5D0E004C02197FE010E94EA04CC3592
:10010000D107C9F70E9495030C94EC060C940000EB
:10011000CF92DF92EF92FF920F931F93CF93DF93D3
:100120006C017A018B01C0E0D0E0CE15DF0581F0D3
:10013000D8016D918D01D601ED91FC910190F08176
:10014000E02DC6010995892B11F02196EECF7E0195
:10015000C701DF91CF911F910F91FF90EF90DF903A
:10016000CF900895089580E090E00895FC01538DAC
:10017000448D252F30E0842F90E0821B930B541781
:1001800010F0CF96089501970895FC01918D828D0E
:10019000981761F0828DDF01A80FB11D5D968C91DB
:1001A000928D9F5F9F73928F90E008958FEF9FEFE6
:1001B0000895FC01918D828D981731F0828DE80FA2
:1001C000F11D858D90E008958FEF9FEF0895FC015C
:1001D000918D228D892F90E0805C9F4F821B910929
:1001E0008F739927089585E291E00E94E70021E04E
:1001F000892B09F420E0822F0895FC01848DDF0112
:10020000A80FB11DA35ABF4F2C91848D90E0019689
:100210008F739927848FA689B7892C93A089B18978
:100220008C91837080648C93938D848D981306C019
:100230000288F389E02D80818F7D80830895EF927D
:10024000FF920F931F93CF93DF93EC0181E0888F90
:100250009B8D8C8D981305C0E889F989808185FD77
:1002600026C0F62E0B8D10E00F5F1F4F0F73112766
:10027000E02E8C8DE8120CC00FB607FCFACFE8898F
:10028000F989808185FFF5CFCE010E94FD00F1CF75
:100290008B8DFE01E80FF11DE35AFF4FF0829FB7EF
:1002A000F8940B8FEA89FB89808180620AC09FB72E
:1002B000F894EE89FF896083E889F98980818370E9
:1002C000806480839FBF81E090E0DF91CF911F9198
:1002D0000F91FF90EF900895CF93DF93EC01888DFD
:1002E0008823C9F0EA89FB89808185FD05C0A8893A
:1002F000B9898C9186FD0FC00FB607FCF5CF8081C0
:1003000085FFF2CFA889B9898C9185FFEDCFCE0109
:100310000E94FD00E7CFDF91CF91089580E090E04B
:10032000892B29F00E94F30081110C94000008959C
:1003300090E0FC01E859FF4F2491FC01EC55FF4F80
:100340003491FC01E057FF4FE491EE2309F43CC0E7
:10035000222339F1233091F038F42130A9F02230F2
:1003600001F584B58F7D12C0273091F02830A1F0BF
:100370002430B9F4809180008F7D03C0809180008B
:100380008F77809380000DC084B58F7784BD09C0BE
:100390008091B0008F7703C08091B0008F7D8093F3
:1003A000B000F0E0EE0FFF1FE458FF4FA591B491AD
:1003B0009FB7F894611104C08C913095382302C026
:1003C000EC913E2B3C939FBF08953FB7F8948091EA
:1003D000210190912201A0912301B091240126B521
:1003E000A89B05C02F3F19F00196A11DB11D3FBF6D
:1003F000BA2FA92F982F8827820F911DA11DB11DFB
:10040000BC01CD0142E0660F771F881F991F4A95F6
:10041000D1F708958F929F92AF92BF92CF92DF92C1
:10042000EF92FF920E94E5014B015C018AEFC82E1A
:10043000D12CE12CF12C0E94E501DC01CB018819C3
:100440009909AA09BB09883E9340A105B10598F313
:1004500021E0C21AD108E108F10888EE880E83E095
:10046000981EA11CB11CC114D104E104F10419F7B8
:10047000FF90EF90DF90CF90BF90AF909F908F90C4
:100480000895FC01448155816081718185E291E08C
:100490000E94880042E050E068E171E085E291E06E
:1004A0000C9488000E94D7060F931F93CF93DF937D
:1004B000EC0188819981009729F02A813B812617D8
:1004C000370788F48B016F5F7F4F0E9411060097FA
:1004D00061F0998388831B830A832C813D81232BC0
:1004E00011F4FC01108281E001C080E0DF91CF9126
:1004F0001F910F910895EF92FF920F931F93CF9347
:10050000DF93EC017B018A01BA010E945402288129
:10051000398181110DC02115310519F0C9010E94E1
:100520008805198218821D821C821B821A8206C0CD
:100530001D830C83B701C9010E94E506CE01DF913E
:10054000CF911F910F91FF90EF9008951F920F92FE
:100550000FB60F9211242F933F934F935F936F9396
:100560007F938F939F93AF93BF93EF93FF9385E216
:1005700091E00E94FD00FF91EF91BF91AF919F919B
:100580008F917F916F915F914F913F912F910F903C
:100590000FBE0F901F9018951F920F920FB60F92DB
:1005A00011242F938F939F93EF93FF93E091350145
:1005B000F09136018081E0913B01F0913C0182FD98
:1005C00012C0908180913E018F5F8F7320913F0117
:1005D000821751F0E0913E01F0E0EB5DFE4F958F08
:1005E00080933E0101C08081FF91EF919F918F9197
:1005F0002F910F900FBE0F901F9018951F920F9282
:100600000FB60F9211242F933F938F939F93AF9325
:10061000BF9380911D0190911E01A0911F01B09187
:10062000200130911C0123E0230F2D3720F4019687
:10063000A11DB11D05C026E8230F0296A11DB11D05
:1006400020931C0180931D0190931E01A0931F0114
:10065000B09320018091210190912201A09123016A
:10066000B09124010196A11DB11D809321019093A9
:100670002201A0932301B0932401BF91AF919F91D8
:100680008F913F912F910F900FBE0F901F90189553
:100690000F931F93CF93DF93C5E2D1E01B821A82A1
:1006A00088EE93E0A0E0B0E08C839D83AE83BF83AF
:1006B0008AE091E09983888385EC90E09D878C8720
:1006C00084EC90E09F878E8780EC90E0998B888BFC
:1006D00081EC90E09B8B8A8B82EC90E09D8B8C8BE5
:1006E00086EC90E09F8B8E8B198E1A8E1B8E1C8E43
:1006F00002EC11E0F8011382128215821482178233
:10070000168240E050E06AE171E084EC91E00E94E2
:100710007B02F801D183C08381E492E0948B838BC8
:10072000DF91CF911F910F910895CF93DF9300D068
:1007300000D000D0CDB7DEB7789484B5826084BD98
:1007400084B5816084BD85B5826085BD85B58160D5
:1007500085BD80916E00816080936E001092810053
:10076000809181008260809381008091810081600E
:1007700080938100809180008160809380008091CF
:10078000B10084608093B1008091B000816080935B
:10079000B00080917A00846080937A0080917A0022
:1007A000826080937A0080917A00816080937A00E1
:1007B00080917A00806880937A001092C100E09165
:1007C0003501F091360182E08083E0913101F091B2
:1007D00032011082E0913301F091340180E1808395
:1007E00010923D01E0913901F0913A0186E0808359
:1007F000E0913701F0913801808180618083E09140
:100800003701F0913801808188608083E091370161
:10081000F0913801808180688083E0913701F09108
:10082000380180818F7D8083E1EBF0E02491EDE958
:10083000F0E08491882399F090E0880F991FFC01E3
:10084000EA57FF4FA591B491FC01E458FF4F859101
:1008500094918FB7F894EC91E22BEC938FBF8DE0DD
:1008600090E09093DA018093D90161E00E949801B1
:100870000E940A0260E08091D9010E9498010E94C2
:100880000A028091C2019091C301DC01ED91FC91BB
:100890000084F185E02D0995892B09F45BC08091D6
:1008A000C2019091C301DC01ED91FC910284F385BA
:1008B000E02D09958093CA01803751F50091D5014B
:1008C0001091D6011A8219821C821B821E821D82FF
:1008D0006091C4017091C5016115710541F04091AD
:1008E000C8015091C901CE0101960E947B02CE0140
:1008F0000196F801099589819A810E94880540E056
:1009000050E06AE171E084EC91E00E947B0222C039
:1009100089831A820091C8011091C9010F5F1F4F8E
:10092000B80184EC91E00E945402882399F0209150
:10093000C4013091C5018091C8019091C901BE01E7
:100940006F5F7F4F820F931F0E94E5061093C901CE
:100950000093C8010E948E0194CF8091C4019091B0
:10096000C5010C9488052F923F924F925F926F922F
:100970007F928F929F92AF92BF92CF92DF92EF922F
:10098000FF920F931F93CF93DF93CDB7DEB7CA1BB0
:10099000DB0B0FB6F894DEBF0FBECDBF09942A88DB
:1009A000398848885F846E847D848C849B84AA8483
:1009B000B984C884DF80EE80FD800C811B81AA8110
:1009C000B981CE0FD11D0FB6F894DEBF0FBECDBFDB
:1009D000ED010895EE0FFF1F0590F491E02D0994AD
:1009E0000F931F93CF93DF938230910510F482E031
:1009F00090E0E091DD01F091DE0120E030E0A0E048
:100A0000B0E0309719F1408151810281138148177C
:100A10005907C8F08417950769F4109731F01296BA
:100A20000C93129713961C9327C00093DD0110932B
:100A3000DE0122C02115310519F04217530718F4C1
:100A40009A01BD01EF01DF01F801DBCF211531056E
:100A5000F9F0281B390B2430310580F48A819B8101
:100A60006115710521F0FB019383828304C090938B
:100A7000DE018093DD01FE01329644C0FE01E20FEB
:100A8000F31F8193919322503109398328833AC00F
:100A90002091DB013091DC01232B41F420910201F4
:100AA000309103013093DC012093DB0120910001A0
:100AB000309101012115310541F42DB73EB7409128
:100AC000040150910501241B350BE091DB01F091ED
:100AD000DC01E217F307A0F42E1B3F0B28173907A0
:100AE00078F0AC014E5F5F4F2417350748F04E0F8A
:100AF0005F1F5093DC014093DB018193919302C00F
:100B0000E0E0F0E0CF01DF91CF911F910F910895C8
:100B1000CF93DF93009709F481C0FC0132971382D1
:100B20001282A091DD01B091DE01109781F4208145
:100B30003181820F931F2091DB013091DC01281756
:100B4000390751F5F093DC01E093DB0167C0ED015B
:100B500020E030E0CE17DF0740F44A815B819E0140
:100B600041155105F1F0EA01F5CFD383C2834081ED
:100B70005181840F951FC817D90759F4888199812D
:100B8000840F951F0296918380838A819B81938332
:100B900082832115310529F4F093DE01E093DD0114
:100BA0003DC0E901FB83EA8349915991C40FD51FE8
:100BB000EC17FD0761F480819181840F951F0296E7
:100BC000E90199838883828193819B838A83E0E012
:100BD000F0E012968D919C911397009719F0FD010A
:100BE000DC01F7CF8D919C9111979D012E5F3F4FB6
:100BF000820F931F2091DB013091DC012817390708
:100C000069F4309729F41092DE011092DD0102C0E0
:100C100013821282B093DC01A093DB01DF91CF91AC
:100C20000895A0E0B0E0E7E1F6E00C94B704EC0131
:100C3000009721F4CB010E94F004B4C0FC01E60F40
:100C4000F71F9C0122503109E217F30708F4A8C0EE
:100C5000D9010D911C91119706171707B0F00530B7
:100C6000110508F49BC0C80104978617970708F47C
:100C700095C002501109061B170B019311936D9338
:100C80007C93CF010E94880589C05B01A01AB10A3C
:100C90004C01800E911EA091DD01B091DE01612C0E
:100CA000712CE12CF12C109709F446C08D919C9188
:100CB0001197A815B905B1F56C0142E0C40ED11C1D
:100CC000CA14DB0478F14C018A189B08640142E0E5
:100CD000C40ED11C1296BC9012971396AC91B5E03D
:100CE000CB16D10440F0B282A38391828082D901D5
:100CF0006D937C9309C00E5F1F4F800F911FF90108
:100D000091838083EB2DFA2FE114F10431F0D701A8
:100D10001396FC93EE93129741C0F093DE01E0939B
:100D2000DD013CC06816790608F43C017D0112968D
:100D30000D90BC91A02DB7CF8091DB019091DC018B
:100D400088169906E1F466167706C8F480910001CA
:100D500090910101009741F48DB79EB74091040135
:100D600050910501841B950BE817F907C8F4F0931F
:100D7000DC01E093DB01F901718360830FC0CB01DB
:100D80000E94F0047C01009759F0A801BE010E9466
:100D9000DC06CE010E948805C70104C0CE0102C056
:100DA00080E090E0CDB7DEB7EEE00C94D30481E0B4
:100DB00090E0F8940C94EC06FB01DC0102C0019079
:100DC0000D9241505040D8F70895FB01DC0101908D
:100DD0000D920020E1F7089510E0CDE5D0E004C0C9
:100DE000FE010E94EA042196CE35D107C9F7F89496
:020DF000FFCF33
:100DF2000000DF018000000000001F018800B60033
:0C0E02006C01E700C500D9000D0A0000DB
:107E0000112484B714BE81FFF0D085E080938100F7
:107E100082E08093C00088E18093C10086E0809377
:107E2000C20080E18093C4008EE0C9D0259A86E02C
:107E300020E33CEF91E0309385002093840096BBD3
:107E4000B09BFECF1D9AA8958150A9F7CC24DD24C4
:107E500088248394B5E0AB2EA1E19A2EF3E0BF2EE7
:107E6000A2D0813461F49FD0082FAFD0023811F036
:107E7000013811F484E001C083E08DD089C08234E0
:107E800011F484E103C0853419F485E0A6D080C0E4
:107E9000853579F488D0E82EFF2485D0082F10E0AE
:107EA000102F00270E291F29000F111F8ED06801E7
:107EB0006FC0863521F484E090D080E0DECF843638
:107EC00009F040C070D06FD0082F6DD080E0C81688
:107ED00080E7D80618F4F601B7BEE895C0E0D1E017
:107EE00062D089930C17E1F7F0E0CF16F0E7DF06D8
:107EF00018F0F601B7BEE89568D007B600FCFDCFD4
:107F0000A601A0E0B1E02C9130E011968C91119780
:107F100090E0982F8827822B932B1296FA010C0160
:107F200087BEE89511244E5F5F4FF1E0A038BF0790
:107F300051F7F601A7BEE89507B600FCFDCF97BE46
:107F4000E89526C08437B1F42ED02DD0F82E2BD052
:107F50003CD0F601EF2C8F010F5F1F4F84911BD097
:107F6000EA94F801C1F70894C11CD11CFA94CF0C13
:107F7000D11C0EC0853739F428D08EE10CD085E9AC
:107F80000AD08FE07ACF813511F488E018D01DD067
:107F900080E101D065CF982F8091C00085FFFCCF94
:107FA0009093C60008958091C00087FFFCCF809118
:107FB000C00084FD01C0A8958091C6000895E0E648
:107FC000F0E098E1908380830895EDDF803219F02E
:107FD00088E0F5DFFFCF84E1DECF1F93182FE3DFCA
:107FE0001150E9F7F2DF1F91089580E0E8DFEE27F6
:047FF000FF270994CA
:027FFE00040479
:0400000300007E007B
:00000001FF